{
  "_format": "hh-sol-artifact-1",
  "contractName": "Lottery",
  "sourceName": "contracts/Lottery.sol",
  "abi": [
    {
      "inputs": [],
      "stateMutability": "nonpayable",
      "type": "constructor"
    },
    {
      "inputs": [],
      "name": "admin",
      "outputs": [
        {
          "internalType": "address",
          "name": "",
          "type": "address"
        }
      ],
      "stateMutability": "view",
      "type": "function"
    },
    {
      "inputs": [],
      "name": "length",
      "outputs": [
        {
          "internalType": "uint8",
          "name": "",
          "type": "uint8"
        }
      ],
      "stateMutability": "view",
      "type": "function"
    },
    {
      "inputs": [
        {
          "internalType": "uint256",
          "name": "",
          "type": "uint256"
        }
      ],
      "name": "noOfParticipants",
      "outputs": [
        {
          "internalType": "address",
          "name": "",
          "type": "address"
        }
      ],
      "stateMutability": "view",
      "type": "function"
    },
    {
      "inputs": [
        {
          "internalType": "address",
          "name": "",
          "type": "address"
        }
      ],
      "name": "participants",
      "outputs": [
        {
          "internalType": "uint256",
          "name": "",
          "type": "uint256"
        }
      ],
      "stateMutability": "view",
      "type": "function"
    },
    {
      "inputs": [],
      "name": "randomWin",
      "outputs": [
        {
          "internalType": "uint256",
          "name": "",
          "type": "uint256"
        }
      ],
      "stateMutability": "view",
      "type": "function"
    },
    {
      "inputs": [],
      "name": "randomWinner",
      "outputs": [
        {
          "internalType": "uint256",
          "name": "",
          "type": "uint256"
        }
      ],
      "stateMutability": "nonpayable",
      "type": "function"
    },
    {
      "inputs": [],
      "name": "takePart",
      "outputs": [],
      "stateMutability": "payable",
      "type": "function"
    },
    {
      "inputs": [],
      "name": "winnerPay",
      "outputs": [],
      "stateMutability": "nonpayable",
      "type": "function"
    }
  ],
  "bytecode": "0x608060405234801561001057600080fd5b5033600360006101000a81548173ffffffffffffffffffffffffffffffffffffffff021916908373ffffffffffffffffffffffffffffffffffffffff1602179055506113fe806100616000396000f3fe60806040526004361061007b5760003560e01c80638ce1a5d01161004e5780638ce1a5d014610150578063e09912df14610167578063f851a44014610171578063f994709c1461019c5761007b565b806309e69ede146100805780631f7b6d32146100bd5780636a34f90f146100e85780638a5fcdd214610113575b600080fd5b34801561008c57600080fd5b506100a760048036038101906100a29190610c81565b6101c7565b6040516100b49190610cc7565b60405180910390f35b3480156100c957600080fd5b506100d26101df565b6040516100df9190610cfe565b60405180910390f35b3480156100f457600080fd5b506100fd6101eb565b60405161010a9190610cc7565b60405180910390f35b34801561011f57600080fd5b5061013a60048036038101906101359190610d45565b6101f1565b6040516101479190610d81565b60405180910390f35b34801561015c57600080fd5b50610165610230565b005b61016f610413565b005b34801561017d57600080fd5b506101866106e5565b6040516101939190610d81565b60405180910390f35b3480156101a857600080fd5b506101b161070b565b6040516101be9190610cc7565b60405180910390f35b60016020528060005260406000206000915090505481565b60008080549050905090565b60045481565b6000818154811061020157600080fd5b906000526020600020016000915054906101000a900473ffffffffffffffffffffffffffffffffffffffff1681565b600360009054906101000a900473ffffffffffffffffffffffffffffffffffffffff1673ffffffffffffffffffffffffffffffffffffffff163373ffffffffffffffffffffffffffffffffffffffff16146102c0576040517f08c379a00000000000000000000000000000000000000000000000000000000081526004016102b790610df9565b60405180910390fd5b60036000805490501015610309576040517f08c379a000000000000000000000000000000000000000000000000000000000815260040161030090610e65565b60405180910390fd5b600080600454815481106103205761031f610e85565b5b9060005260206000200160009054906101000a900473ffffffffffffffffffffffffffffffffffffffff1690506103568161087e565b60008173ffffffffffffffffffffffffffffffffffffffff1647600036604051610381929190610ef3565b60006040518083038185875af1925050503d80600081146103be576040519150601f19603f3d011682016040523d82523d6000602084013e6103c3565b606091505b5050905080610407576040517f08c379a00000000000000000000000000000000000000000000000000000000081526004016103fe90610f58565b60405180910390fd5b61040f610917565b5050565b600360009054906101000a900473ffffffffffffffffffffffffffffffffffffffff1673ffffffffffffffffffffffffffffffffffffffff163373ffffffffffffffffffffffffffffffffffffffff1614156104a4576040517f08c379a000000000000000000000000000000000000000000000000000000000815260040161049b90610fc4565b60405180910390fd5b600a60008054905011156104ed576040517f08c379a00000000000000000000000000000000000000000000000000000000081526004016104e490611030565b60405180910390fd5b662386f26fc100003414610536576040517f08c379a000000000000000000000000000000000000000000000000000000000815260040161052d906110c2565b60405180910390fd5b600260003373ffffffffffffffffffffffffffffffffffffffff1673ffffffffffffffffffffffffffffffffffffffff16815260200190815260200160002060009054906101000a900460ff16156105e35734600160003373ffffffffffffffffffffffffffffffffffffffff1673ffffffffffffffffffffffffffffffffffffffff16815260200190815260200160002060008282546105d79190611111565b925050819055506106e3565b6001600260003373ffffffffffffffffffffffffffffffffffffffff1673ffffffffffffffffffffffffffffffffffffffff16815260200190815260200160002060006101000a81548160ff02191690831515021790555034600160003373ffffffffffffffffffffffffffffffffffffffff1673ffffffffffffffffffffffffffffffffffffffff168152602001908152602001600020819055506000339080600181540180825580915050600190039060005260206000200160009091909190916101000a81548173ffffffffffffffffffffffffffffffffffffffff021916908373ffffffffffffffffffffffffffffffffffffffff1602179055505b565b600360009054906101000a900473ffffffffffffffffffffffffffffffffffffffff1681565b6000600360009054906101000a900473ffffffffffffffffffffffffffffffffffffffff1673ffffffffffffffffffffffffffffffffffffffff163373ffffffffffffffffffffffffffffffffffffffff161461079d576040517f08c379a000000000000000000000000000000000000000000000000000000000815260040161079490610df9565b60405180910390fd5b600360008054905010156107e6576040517f08c379a00000000000000000000000000000000000000000000000000000000081526004016107dd906111d9565b60405180910390fd5b600044426000805490506040516020016108029392919061121a565b6040516020818303038152906040528051906020012060001c90506000805490508161082e9190611286565b6004819055506108756040518060400160405280600781526020017f72616e646f6d3a00000000000000000000000000000000000000000000000000815250600454610ab2565b60045491505090565b610914816040516024016108929190610d81565b6040516020818303038152906040527f2c2ecbc2000000000000000000000000000000000000000000000000000000007bffffffffffffffffffffffffffffffffffffffffffffffffffffffff19166020820180517bffffffffffffffffffffffffffffffffffffffffffffffffffffffff8381831617835250505050610b4e565b50565b60005b6000805490508160ff161015610a4f5760016000808360ff168154811061094457610943610e85565b5b9060005260206000200160009054906101000a900473ffffffffffffffffffffffffffffffffffffffff1673ffffffffffffffffffffffffffffffffffffffff1673ffffffffffffffffffffffffffffffffffffffff1681526020019081526020016000206000905560026000808360ff16815481106109c7576109c6610e85565b5b9060005260206000200160009054906101000a900473ffffffffffffffffffffffffffffffffffffffff1673ffffffffffffffffffffffffffffffffffffffff1673ffffffffffffffffffffffffffffffffffffffff16815260200190815260200160002060006101000a81549060ff02191690558080610a47906112b7565b91505061091a565b50600067ffffffffffffffff811115610a6b57610a6a6112e1565b5b604051908082528060200260200182016040528015610a995781602001602082028036833780820191505090505b5060009080519060200190610aaf929190610b77565b50565b610b4a8282604051602401610ac8929190611398565b6040516020818303038152906040527f9710a9d0000000000000000000000000000000000000000000000000000000007bffffffffffffffffffffffffffffffffffffffffffffffffffffffff19166020820180517bffffffffffffffffffffffffffffffffffffffffffffffffffffffff8381831617835250505050610b4e565b5050565b60008151905060006a636f6e736f6c652e6c6f679050602083016000808483855afa5050505050565b828054828255906000526020600020908101928215610bf0579160200282015b82811115610bef5782518260006101000a81548173ffffffffffffffffffffffffffffffffffffffff021916908373ffffffffffffffffffffffffffffffffffffffff16021790555091602001919060010190610b97565b5b509050610bfd9190610c01565b5090565b5b80821115610c1a576000816000905550600101610c02565b5090565b600080fd5b600073ffffffffffffffffffffffffffffffffffffffff82169050919050565b6000610c4e82610c23565b9050919050565b610c5e81610c43565b8114610c6957600080fd5b50565b600081359050610c7b81610c55565b92915050565b600060208284031215610c9757610c96610c1e565b5b6000610ca584828501610c6c565b91505092915050565b6000819050919050565b610cc181610cae565b82525050565b6000602082019050610cdc6000830184610cb8565b92915050565b600060ff82169050919050565b610cf881610ce2565b82525050565b6000602082019050610d136000830184610cef565b92915050565b610d2281610cae565b8114610d2d57600080fd5b50565b600081359050610d3f81610d19565b92915050565b600060208284031215610d5b57610d5a610c1e565b5b6000610d6984828501610d30565b91505092915050565b610d7b81610c43565b82525050565b6000602082019050610d966000830184610d72565b92915050565b600082825260208201905092915050565b7f596f7520617265206e6f7420616e204f776e6572000000000000000000000000600082015250565b6000610de3601483610d9c565b9150610dee82610dad565b602082019050919050565b60006020820190508181036000830152610e1281610dd6565b9050919050565b7f4e6f7420656e6f756768205061727469636970616e7473000000000000000000600082015250565b6000610e4f601783610d9c565b9150610e5a82610e19565b602082019050919050565b60006020820190508181036000830152610e7e81610e42565b9050919050565b7f4e487b7100000000000000000000000000000000000000000000000000000000600052603260045260246000fd5b600081905092915050565b82818337600083830152505050565b6000610eda8385610eb4565b9350610ee7838584610ebf565b82840190509392505050565b6000610f00828486610ece565b91508190509392505050565b7f4661696c6564205472616e73616374696f6e0000000000000000000000000000600082015250565b6000610f42601283610d9c565b9150610f4d82610f0c565b602082019050919050565b60006020820190508181036000830152610f7181610f35565b9050919050565b7f596f752061726520616e204f776e657200000000000000000000000000000000600082015250565b6000610fae601083610d9c565b9150610fb982610f78565b602082019050919050565b60006020820190508181036000830152610fdd81610fa1565b9050919050565b7f4d6178204e756d62657220526561636865640000000000000000000000000000600082015250565b600061101a601283610d9c565b915061102582610fe4565b602082019050919050565b600060208201905081810360008301526110498161100d565b9050919050565b7f6174206c6561737420302e3031206574686572206e656564656420746f20706160008201527f72746963697061746520696e20746865206c6f74746572790000000000000000602082015250565b60006110ac603883610d9c565b91506110b782611050565b604082019050919050565b600060208201905081810360008301526110db8161109f565b9050919050565b7f4e487b7100000000000000000000000000000000000000000000000000000000600052601160045260246000fd5b600061111c82610cae565b915061112783610cae565b9250827fffffffffffffffffffffffffffffffffffffffffffffffffffffffffffffffff0382111561115c5761115b6110e2565b5b828201905092915050565b7f4e656564204d6f7265207468616e2033205061727469636970616e737420746f60008201527f207374617274206c6f7474657279000000000000000000000000000000000000602082015250565b60006111c3602e83610d9c565b91506111ce82611167565b604082019050919050565b600060208201905081810360008301526111f2816111b6565b9050919050565b6000819050919050565b61121461120f82610cae565b6111f9565b82525050565b60006112268286611203565b6020820191506112368285611203565b6020820191506112468284611203565b602082019150819050949350505050565b7f4e487b7100000000000000000000000000000000000000000000000000000000600052601260045260246000fd5b600061129182610cae565b915061129c83610cae565b9250826112ac576112ab611257565b5b828206905092915050565b60006112c282610ce2565b915060ff8214156112d6576112d56110e2565b5b600182019050919050565b7f4e487b7100000000000000000000000000000000000000000000000000000000600052604160045260246000fd5b600081519050919050565b60005b8381101561133957808201518184015260208101905061131e565b83811115611348576000848401525b50505050565b6000601f19601f8301169050919050565b600061136a82611310565b6113748185610d9c565b935061138481856020860161131b565b61138d8161134e565b840191505092915050565b600060408201905081810360008301526113b2818561135f565b90506113c16020830184610cb8565b939250505056fea2646970667358221220786add952f2aaf5aecea760dd7637bb82a5251d5525d10acd503e5b6e7cb97e764736f6c63430008090033",
  "linkReferences": {},
  "deployedLinkReferences": {}
}